{
  "contractName": "RedPacket",
  "abi": [
    {
      "anonymous": false,
      "inputs": [
        {
          "indexed": true,
          "internalType": "uint256",
          "name": "packetId",
          "type": "uint256"
        },
        {
          "indexed": true,
          "internalType": "address",
          "name": "claimer",
          "type": "address"
        },
        {
          "indexed": false,
          "internalType": "uint256",
          "name": "amount",
          "type": "uint256"
        }
      ],
      "name": "RedPacketClaimed",
      "type": "event"
    },
    {
      "anonymous": false,
      "inputs": [
        {
          "indexed": true,
          "internalType": "uint256",
          "name": "packetId",
          "type": "uint256"
        },
        {
          "indexed": true,
          "internalType": "address",
          "name": "creator",
          "type": "address"
        },
        {
          "indexed": false,
          "internalType": "uint256",
          "name": "totalAmount",
          "type": "uint256"
        },
        {
          "indexed": false,
          "internalType": "uint256",
          "name": "packetCount",
          "type": "uint256"
        }
      ],
      "name": "RedPacketCreated",
      "type": "event"
    },
    {
      "inputs": [],
      "name": "nextPacketId",
      "outputs": [
        {
          "internalType": "uint256",
          "name": "",
          "type": "uint256"
        }
      ],
      "stateMutability": "view",
      "type": "function"
    },
    {
      "inputs": [
        {
          "internalType": "uint256",
          "name": "",
          "type": "uint256"
        }
      ],
      "name": "redPackets",
      "outputs": [
        {
          "internalType": "address",
          "name": "creator",
          "type": "address"
        },
        {
          "internalType": "uint256",
          "name": "totalAmount",
          "type": "uint256"
        },
        {
          "internalType": "uint256",
          "name": "remainingAmount",
          "type": "uint256"
        },
        {
          "internalType": "uint256",
          "name": "remainingPackets",
          "type": "uint256"
        },
        {
          "internalType": "uint256",
          "name": "createdAt",
          "type": "uint256"
        }
      ],
      "stateMutability": "view",
      "type": "function"
    },
    {
      "inputs": [],
      "name": "createRedPacket",
      "outputs": [
        {
          "internalType": "uint256",
          "name": "",
          "type": "uint256"
        }
      ],
      "stateMutability": "payable",
      "type": "function"
    },
    {
      "inputs": [
        {
          "internalType": "uint256",
          "name": "packetId",
          "type": "uint256"
        }
      ],
      "name": "claimRedPacket",
      "outputs": [],
      "stateMutability": "nonpayable",
      "type": "function"
    },
    {
      "inputs": [
        {
          "internalType": "uint256",
          "name": "packetId",
          "type": "uint256"
        }
      ],
      "name": "getRedPacketInfo",
      "outputs": [
        {
          "internalType": "address",
          "name": "creator",
          "type": "address"
        },
        {
          "internalType": "uint256",
          "name": "totalAmount",
          "type": "uint256"
        },
        {
          "internalType": "uint256",
          "name": "remainingAmount",
          "type": "uint256"
        },
        {
          "internalType": "uint256",
          "name": "remainingPackets",
          "type": "uint256"
        },
        {
          "internalType": "uint256",
          "name": "createdAt",
          "type": "uint256"
        },
        {
          "internalType": "address[]",
          "name": "claimers",
          "type": "address[]"
        }
      ],
      "stateMutability": "view",
      "type": "function"
    },
    {
      "inputs": [
        {
          "internalType": "uint256",
          "name": "packetId",
          "type": "uint256"
        },
        {
          "internalType": "address",
          "name": "user",
          "type": "address"
        }
      ],
      "name": "hasClaimedRedPacket",
      "outputs": [
        {
          "internalType": "bool",
          "name": "",
          "type": "bool"
        }
      ],
      "stateMutability": "view",
      "type": "function"
    },
    {
      "inputs": [
        {
          "internalType": "uint256",
          "name": "packetId",
          "type": "uint256"
        }
      ],
      "name": "getRedPacketAmounts",
      "outputs": [
        {
          "internalType": "uint256[]",
          "name": "",
          "type": "uint256[]"
        }
      ],
      "stateMutability": "view",
      "type": "function"
    }
  ],
  "bytecode": "0x608060405234801561001057600080fd5b5061150e806100206000396000f3fe60806040526004361061008d576000357c01000000000000000000000000000000000000000000000000000000009004806373da60711161006b57806373da6071146101275780637ea9993d146101645780638b11470a146101a1578063f1caa667146101e35761008d565b8063128aa254146100925780636656432e146100d35780636917d78c146100fc575b600080fd5b34801561009e57600080fd5b506100b960048036038101906100b49190610bae565b610201565b6040516100ca959493929190610c2b565b60405180910390f35b3480156100df57600080fd5b506100fa60048036038101906100f59190610bae565b610257565b005b34801561010857600080fd5b506101116105e6565b60405161011e9190610c7e565b60405180910390f35b34801561013357600080fd5b5061014e60048036038101906101499190610bae565b6105ec565b60405161015b9190610d57565b60405180910390f35b34801561017057600080fd5b5061018b60048036038101906101869190610da5565b610659565b6040516101989190610e00565b60405180910390f35b3480156101ad57600080fd5b506101c860048036038101906101c39190610bae565b6106c3565b6040516101da96959493929190610ed9565b60405180910390f35b6101eb6107be565b6040516101f89190610c7e565b60405180910390f35b60006020528060005260406000206000915090508060000160009054906101000a900473ffffffffffffffffffffffffffffffffffffffff16908060010154908060020154908060030154908060040154905085565b6000806000838152602001908152602001600020905060008160010154116102b4576040517f08c379a00000000000000000000000000000000000000000000000000000000081526004016102ab90610f9e565b60405180910390fd5b60008160030154116102fb576040517f08c379a00000000000000000000000000000000000000000000000000000000081526004016102f29061100a565b60405180910390fd5b8060050160003373ffffffffffffffffffffffffffffffffffffffff1673ffffffffffffffffffffffffffffffffffffffff16815260200190815260200160002060009054906101000a900460ff161561038a576040517f08c379a000000000000000000000000000000000000000000000000000000000815260040161038190611076565b60405180910390fd5b8060000160009054906101000a900473ffffffffffffffffffffffffffffffffffffffff1673ffffffffffffffffffffffffffffffffffffffff163373ffffffffffffffffffffffffffffffffffffffff160361041c576040517f08c379a0000000000000000000000000000000000000000000000000000000008152600401610413906110e2565b60405180910390fd5b60018160050160003373ffffffffffffffffffffffffffffffffffffffff1673ffffffffffffffffffffffffffffffffffffffff16815260200190815260200160002060006101000a81548160ff0219169083151502179055506000816003015460056104899190611131565b905060008260060182815481106104a3576104a2611165565b5b90600052602060002001549050808360020160008282546104c49190611131565b925050819055508260030160008154809291906104e090611194565b919050555082600701339080600181540180825580915050600190039060005260206000200160009091909190916101000a81548173ffffffffffffffffffffffffffffffffffffffff021916908373ffffffffffffffffffffffffffffffffffffffff1602179055503373ffffffffffffffffffffffffffffffffffffffff166108fc829081150290604051600060405180830381858888f19350505050158015610590573d6000803e3d6000fd5b503373ffffffffffffffffffffffffffffffffffffffff16847f35d644614009c0a33ec77a511c3b74a5eb804fc664529a6c778562dd6b87fade836040516105d89190610c7e565b60405180910390a350505050565b60015481565b606060008083815260200190815260200160002060060180548060200260200160405190810160405280929190818152602001828054801561064d57602002820191906000526020600020905b815481526020019060010190808311610639575b50505050509050919050565b600080600084815260200190815260200160002060050160008373ffffffffffffffffffffffffffffffffffffffff1673ffffffffffffffffffffffffffffffffffffffff16815260200190815260200160002060009054906101000a900460ff16905092915050565b60008060008060006060600080600089815260200190815260200160002090508060000160009054906101000a900473ffffffffffffffffffffffffffffffffffffffff16816001015482600201548360030154846004015485600701808054806020026020016040519081016040528092919081815260200182805480156107a157602002820191906000526020600020905b8160009054906101000a900473ffffffffffffffffffffffffffffffffffffffff1673ffffffffffffffffffffffffffffffffffffffff1681526020019060010190808311610757575b505050505090509650965096509650965096505091939550919395565b6000655af3107a40003414610808576040517f08c379a00000000000000000000000000000000000000000000000000000000081526004016107ff90611209565b60405180910390fd5b60006001600081548092919061081d90611229565b91905055905060008060008381526020019081526020016000209050338160000160006101000a81548173ffffffffffffffffffffffffffffffffffffffff021916908373ffffffffffffffffffffffffffffffffffffffff160217905550348160010181905550348160020181905550600581600301819055504281600401819055506108ac34600561091e565b8160060190805190602001906108c3929190610b09565b503373ffffffffffffffffffffffffffffffffffffffff16827f680e257dda79cd07165570434d5cd2ff8221d3f4d092abfc2a09a555440e93ee34600560405161090e9291906112b6565b60405180910390a3819250505090565b606060008267ffffffffffffffff81111561093c5761093b6112df565b5b60405190808252806020026020018201604052801561096a5781602001602082028036833780820191505090505b509050600084905060005b6001856109829190611131565b811015610a7957600081866109979190611131565b6002846109a4919061130e565b6109ae919061137f565b90506000600190506000816109d9600184866109ca9190611131565b6109d491906113b0565b610ab1565b6109e391906113b0565b9050600184896109f39190611131565b6109fd9190611131565b85610a089190611131565b811115610a355760018489610a1d9190611131565b610a279190611131565b85610a329190611131565b90505b80868581518110610a4957610a48611165565b5b6020026020010181815250508085610a619190611131565b94505050508080610a7190611229565b915050610975565b508082600186610a899190611131565b81518110610a9a57610a99611165565b5b602002602001018181525050819250505092915050565b6000808203610ac35760009050610b04565b81424433600154604051602001610add9493929190611459565b6040516020818303038152906040528051906020012060019004610b0191906114a7565b90505b919050565b828054828255906000526020600020908101928215610b45579160200282015b82811115610b44578251825591602001919060010190610b29565b5b509050610b529190610b56565b5090565b5b80821115610b6f576000816000905550600101610b57565b5090565b600080fd5b6000819050919050565b610b8b81610b78565b8114610b9657600080fd5b50565b600081359050610ba881610b82565b92915050565b600060208284031215610bc457610bc3610b73565b5b6000610bd284828501610b99565b91505092915050565b600073ffffffffffffffffffffffffffffffffffffffff82169050919050565b6000610c0682610bdb565b9050919050565b610c1681610bfb565b82525050565b610c2581610b78565b82525050565b600060a082019050610c406000830188610c0d565b610c4d6020830187610c1c565b610c5a6040830186610c1c565b610c676060830185610c1c565b610c746080830184610c1c565b9695505050505050565b6000602082019050610c936000830184610c1c565b92915050565b600081519050919050565b600082825260208201905092915050565b6000819050602082019050919050565b610cce81610b78565b82525050565b6000610ce08383610cc5565b60208301905092915050565b6000602082019050919050565b6000610d0482610c99565b610d0e8185610ca4565b9350610d1983610cb5565b8060005b83811015610d4a578151610d318882610cd4565b9750610d3c83610cec565b925050600181019050610d1d565b5085935050505092915050565b60006020820190508181036000830152610d718184610cf9565b905092915050565b610d8281610bfb565b8114610d8d57600080fd5b50565b600081359050610d9f81610d79565b92915050565b60008060408385031215610dbc57610dbb610b73565b5b6000610dca85828601610b99565b9250506020610ddb85828601610d90565b9150509250929050565b60008115159050919050565b610dfa81610de5565b82525050565b6000602082019050610e156000830184610df1565b92915050565b600081519050919050565b600082825260208201905092915050565b6000819050602082019050919050565b610e5081610bfb565b82525050565b6000610e628383610e47565b60208301905092915050565b6000602082019050919050565b6000610e8682610e1b565b610e908185610e26565b9350610e9b83610e37565b8060005b83811015610ecc578151610eb38882610e56565b9750610ebe83610e6e565b925050600181019050610e9f565b5085935050505092915050565b600060c082019050610eee6000830189610c0d565b610efb6020830188610c1c565b610f086040830187610c1c565b610f156060830186610c1c565b610f226080830185610c1c565b81810360a0830152610f348184610e7b565b9050979650505050505050565b600082825260208201905092915050565b7f526564207061636b657420646f6573206e6f7420657869737400000000000000600082015250565b6000610f88601983610f41565b9150610f9382610f52565b602082019050919050565b60006020820190508181036000830152610fb781610f7b565b9050919050565b7f4e6f207061636b6574732072656d61696e696e67000000000000000000000000600082015250565b6000610ff4601483610f41565b9150610fff82610fbe565b602082019050919050565b6000602082019050818103600083015261102381610fe7565b9050919050565b7f416c726561647920636c61696d65640000000000000000000000000000000000600082015250565b6000611060600f83610f41565b915061106b8261102a565b602082019050919050565b6000602082019050818103600083015261108f81611053565b9050919050565b7f43726561746f722063616e6e6f7420636c61696d206f776e207061636b657400600082015250565b60006110cc601f83610f41565b91506110d782611096565b602082019050919050565b600060208201905081810360008301526110fb816110bf565b9050919050565b7f4e487b7100000000000000000000000000000000000000000000000000000000600052601160045260246000fd5b600061113c82610b78565b915061114783610b78565b925082820390508181111561115f5761115e611102565b5b92915050565b7f4e487b7100000000000000000000000000000000000000000000000000000000600052603260045260246000fd5b600061119f82610b78565b9150600082036111b2576111b1611102565b5b600182039050919050565b7f4d7573742073656e642065786163746c7920302e303030312045544800000000600082015250565b60006111f3601c83610f41565b91506111fe826111bd565b602082019050919050565b60006020820190508181036000830152611222816111e6565b9050919050565b600061123482610b78565b91507fffffffffffffffffffffffffffffffffffffffffffffffffffffffffffffffff820361126657611265611102565b5b600182019050919050565b6000819050919050565b6000819050919050565b60006112a061129b61129684611271565b61127b565b610b78565b9050919050565b6112b081611285565b82525050565b60006040820190506112cb6000830185610c1c565b6112d860208301846112a7565b9392505050565b7f4e487b7100000000000000000000000000000000000000000000000000000000600052604160045260246000fd5b600061131982610b78565b915061132483610b78565b925082820261133281610b78565b9150828204841483151761134957611348611102565b5b5092915050565b7f4e487b7100000000000000000000000000000000000000000000000000000000600052601260045260246000fd5b600061138a82610b78565b915061139583610b78565b9250826113a5576113a4611350565b5b828204905092915050565b60006113bb82610b78565b91506113c683610b78565b92508282019050808211156113de576113dd611102565b5b92915050565b6000819050919050565b6113ff6113fa82610b78565b6113e4565b82525050565b60006c0100000000000000000000000082029050919050565b600061142982611405565b9050919050565b600061143b8261141e565b9050919050565b61145361144e82610bfb565b611430565b82525050565b600061146582876113ee565b60208201915061147582866113ee565b6020820191506114858285611442565b60148201915061149582846113ee565b60208201915081905095945050505050565b60006114b282610b78565b91506114bd83610b78565b9250826114cd576114cc611350565b5b82820690509291505056fea2646970667358221220cb2dda0bdbf5ca61e4dc4e04a899afb5e4a90da298077837e3cfd5e49835b90264736f6c63430008150033",
  "immutableReferences": {},
  "source": "// SPDX-License-Identifier: MIT\npragma solidity ^0.8.21;\n\ncontract RedPacket {\n    struct RedPacketInfo {\n        address creator;\n        uint256 totalAmount;\n        uint256 remainingAmount;\n        uint256 remainingPackets;\n        uint256 createdAt;\n        mapping(address => bool) claimed;\n        uint256[] amounts;\n        address[] claimers;\n    }\n\n    mapping(uint256 => RedPacketInfo) public redPackets;\n    uint256 public nextPacketId;\n\n    event RedPacketCreated(uint256 indexed packetId, address indexed creator, uint256 totalAmount, uint256 packetCount);\n    event RedPacketClaimed(uint256 indexed packetId, address indexed claimer, uint256 amount);\n\n    function createRedPacket() external payable returns (uint256) {\n        require(msg.value == 0.0001 ether, \"Must send exactly 0.0001 ETH\");\n\n        uint256 packetId = nextPacketId++;\n        RedPacketInfo storage packet = redPackets[packetId];\n\n        packet.creator = msg.sender;\n        packet.totalAmount = msg.value;\n        packet.remainingAmount = msg.value;\n        packet.remainingPackets = 5;\n        packet.createdAt = block.timestamp;\n\n        packet.amounts = _splitAmount(msg.value, 5);\n\n        emit RedPacketCreated(packetId, msg.sender, msg.value, 5);\n        return packetId;\n    }\n\n    function claimRedPacket(uint256 packetId) external {\n        RedPacketInfo storage packet = redPackets[packetId];\n\n        require(packet.totalAmount > 0, \"Red packet does not exist\");\n        require(packet.remainingPackets > 0, \"No packets remaining\");\n        require(!packet.claimed[msg.sender], \"Already claimed\");\n        require(msg.sender != packet.creator, \"Creator cannot claim own packet\");\n\n        packet.claimed[msg.sender] = true;\n\n        uint256 claimIndex = 5 - packet.remainingPackets;\n        uint256 amount = packet.amounts[claimIndex];\n\n        packet.remainingAmount -= amount;\n        packet.remainingPackets--;\n        packet.claimers.push(msg.sender);\n\n        payable(msg.sender).transfer(amount);\n\n        emit RedPacketClaimed(packetId, msg.sender, amount);\n    }\n\n    function getRedPacketInfo(uint256 packetId) external view returns (\n        address creator,\n        uint256 totalAmount,\n        uint256 remainingAmount,\n        uint256 remainingPackets,\n        uint256 createdAt,\n        address[] memory claimers\n    ) {\n        RedPacketInfo storage packet = redPackets[packetId];\n        return (\n            packet.creator,\n            packet.totalAmount,\n            packet.remainingAmount,\n            packet.remainingPackets,\n            packet.createdAt,\n            packet.claimers\n        );\n    }\n\n    function hasClaimedRedPacket(uint256 packetId, address user) external view returns (bool) {\n        return redPackets[packetId].claimed[user];\n    }\n\n    function getRedPacketAmounts(uint256 packetId) external view returns (uint256[] memory) {\n        return redPackets[packetId].amounts;\n    }\n\n    function _splitAmount(uint256 totalAmount, uint256 packetCount) private view returns (uint256[] memory) {\n        uint256[] memory amounts = new uint256[](packetCount);\n        uint256 remaining = totalAmount;\n\n        for (uint256 i = 0; i < packetCount - 1; i++) {\n            uint256 maxAmount = (remaining * 2) / (packetCount - i);\n            uint256 minAmount = 1;\n\n            uint256 randomAmount = _random(maxAmount - minAmount + 1) + minAmount;\n            if (randomAmount > remaining - (packetCount - i - 1)) {\n                randomAmount = remaining - (packetCount - i - 1);\n            }\n\n            amounts[i] = randomAmount;\n            remaining -= randomAmount;\n        }\n\n        amounts[packetCount - 1] = remaining;\n\n        return amounts;\n    }\n\n    function _random(uint256 max) private view returns (uint256) {\n        if (max == 0) return 0;\n        return uint256(keccak256(abi.encodePacked(\n            block.timestamp,\n            block.difficulty,\n            msg.sender,\n            nextPacketId\n        ))) % max;\n    }\n}",
  "sourcePath": "/Users/firebushtree/Desktop/code/yideng/red-package/contracts/RedPacket.sol",
  "compiler": {
    "name": "solc",
    "version": "0.8.21+commit.d9974bed.Emscripten.clang"
  },
  "schemaVersion": "3.4.16",
  "updatedAt": "2025-08-28T04:48:46.514Z",
  "devdoc": {
    "kind": "dev",
    "methods": {},
    "version": 1
  },
  "userdoc": {
    "kind": "user",
    "methods": {},
    "version": 1
  }
}